:080000000C943F000C94000079
:100008000C9400000C9400000C9400000C94000068
:100018000C9400000C9400000C9400000C946C00EC
:100028000C9400000C9400000C9400000C94000048
:100038000C9400000C9400000C9400000C94000038
:100048000C9400000C9400000C94000041424344BE
:1000580045464748494A4B4C4D4E4F5051525354D0
:1000680055565758595A80C01A006001540002006A
:1000780088016E000000F894EE27ECBBF1E0FBBFAE
:10008800EBBFE5BF8DE0A2E0BB27ED938A95E9F7CA
:1000980080E094E0A0E6ED930197E9F7E0E7F0E06F
:1000A80085919591009761F0A591B591059015906E
:1000B800BF01F00105900D920197E1F7FB01F0CF28
:1000C800EFE5EDBFE4E0EEBFC0E6D1E00C94B6008A
:1000D8000A921A92FA926A937A938A939A93AA93B3
:1000E800BA93EA93FA93EFB7EA93F20131962F01A4
:1000F800E8EEF3E0E415F50529F5A0E081D0A0E6E7
:10010800B1E0AA0DBB1DAC917BD0F50131965F0122
:10011800F30131963F01E0E1F0E0E615F70529F437
:1001280066247724E1E0F0E04F016A92A82D51D0CF
:1001380044245524EAE1F0E0EA15FB0519F4E0E06F
:10014800E3BFE9BFE0E0E2BFE991EFBFF991E991D0
:10015800B991A9919991899179916991F990199099
:1001680009901895E0E0EABBEBBB66247724882465
:10017800992444245524AA24BB24E1E0E3BFE0E009
:10018800E2BFECBFE1E0E9BFA0E150D07894FFCF37
:10019800FFCFAA93EBB3EF70AE2FE881E07FEA2B95
:1001A800EBBB84E18A95F1F7DA9A84E18A95F1F755
:1001B800DA9884E18A95F1F763C0AA93A881E9DF08
:1001C800E881E295E883A881E4DF88EC8A95F1F775
:1001D80057C0AA93E881F0E0E857FE4FE081A98173
:1001E800AE0FEBDFD980C88022960895A2E04AD0EE
:1001F800ACE0E3DFA1E046D0E0E0CE2EDE2E0895AD
:10020800AA93A881AA3021F0E0918C01DE1640F073
:10021800E0E0EA93C394AC2DDCDFA881AA3081F139
:10022800D394D89AA881C9DFD8982AC0AA93EAB3E8
:10023800E06FEABBD29AD09AD19ADA98D898D9982E
:10024800E881E0938C01E058E0938A01E881E0546A
:10025800E0938B01A4E1B0E00E94520118D017D0BE
:1002680016D0A0E296DF8CE291E00197F1F7A8E2C0
:10027800A4DFA4E0A2DFA5E8A0DFA6E09EDFB6DF4A
:10028800219608959ADFA3E0B0E00C945201A0E310
:1002980080DF8CE291E00197F1F70895109639F02C
:1002A80088EB9BE00197F1F7A8951197C9F7089596
:00000001FF
