:060000000C942A000C9490
:1000060000000C9400000C9400000C9400000C946A
:1000160000000C9400000C9400000C9400000C945A
:1000260045000C9400000C9400000C9400000C9405
:1000360000000C9400000C9400000C9400000C943A
:1000460000000C9400000C9400000C940000F8943E
:10005600EE27ECBBF1E0FBBFEBBFE5BF8DE0A2E016
:10006600BB27ED938A95E9F780E094E0A0E6ED934F
:100076000197E9F7EFE5EDBFE4E0EEBFC0E6D1E0BA
:100086000C9487000A92EA93FA93EFB7EA93ECE0AE
:10009600E2BF042C052811F4E9E011C0E1E0F0E02C
:1000A600E415F50511F4E5E00AC0E2E0F0E0E41538
:1000B600F50511F4E6E003C07ED011F4EAE0EBBBEF
:1000C600E1E0E71571F400244014500414F073D0F5
:1000D6000CF404C0F20131962F0102C044245524C9
:1000E6000DC000244014500414F065D00CF403C075
:1000F600F201319702C0E3E0F0E02F01E991EFBF92
:10010600F991E99109901895E0E0E7BBE8BBE1BBFE
:10011600E2BBE5E0E3BFECE0E2BFE0E0ECBFEFBD51
:10012600EEBDEDBDECBDE7BDE6BDEBBDEABDE9BD8F
:10013600E8BDE2BDE5BDE4BDE3BDE1E0E9BFE0E069
:10014600E5BFE4BFEAB9E0E8E8B9E0E0E0BFE6B958
:10015600EDB9E6BF789444245524E1E07E2EE0E034
:10016600E4BBE3BBEFEFEABBE0E0EBBB9A9921C04F
:10017600E1E0E71579F4772400244014500414F0E4
:100186001AD00CF403C0F201319702C0E3E0F0E0AC
:100196002F010FC0E1E07E2E00244014500414F01D
:1001A6000AD00CF404C0F20131962F0102C0442497
:1001B6005524DCCFFFCFE3E0F0E0E415F505089524
:00000001FF
