:020000000C945E
:100002003F000C9400000C9400000C9400000C942F
:1000120000000C9400000C9400000C9400000C945E
:10002200AE000C946C000C9400000C9400000C9434
:1000320000000C9400000C9400000C9400000C943E
:1000420000000C9400000C9400000C9400000C942E
:10005200000000000000000000003F0006005B00FE
:100062004F0066006D007D0007007F006F000800F2
:1000720004005400130068015C000000F894EE27AD
:10008200ECBBF1E0FBBFEBBFE5BF8DE0A2E0BB271D
:10009200ED938A95E9F780E094E0A0E6ED9301976D
:1000A200E9F7E0E7F0E085919591009761F0A5917D
:1000B200B59105901590BF01F00105900D92019741
:1000C200E1F7FB01F0CFEFE5EDBFE4E0EEBFC0E604
:1000D200D1E00C94F6000A921A92AA93BA93EA9388
:1000E200FA93EFB7EA93F20131962F01E2E0F0E0E2
:1000F200E415F50549F5F401A6D0A8E6B1E0EE0F46
:10010200FF1FAE0FBF1FEC91E2BB082C092811F4B0
:10011200EEEF08C0E5B3AFEFAE27E2E0EA02F0018E
:10012200AFEFEA27E5BBE5B3EF3E11F4EEEFE5BB37
:1001320044245524F40131964F01E4E0F0E0E8153F
:10014200F90511F488249924E991EFBFF991E99115
:10015200B991A991199009901895AA93BA93EA9323
:10016200FA93EFB7EA93F30131963F01E4E1F0E04D
:10017200E615F70579F5A0E6B1E0ED91FD9131962E
:10018200FE93EE93E4E0F0E0EA15FB05FCF0F501E6
:100192005AD0EA30A0E0FA07A9F4D501AA0FBB1F92
:1001A200AE59BE4FED91FD913196FE93EE93F5015E
:1001B200A0E6B1E0EE0FFF1FAE0FBF1FE0E0F0E0E0
:1001C200ED93FC93F50131965F01DCCFAA24BB24A9
:1001D20066247724EFEFEDBDE0E0ECBDE991EFBFDF
:1001E200F991E991B991A9911895EFEFE4BBEEEF7E
:1001F200E5BBEFEFE1BBE0E0E2BBE5E0E3BFE0E05F
:10020200E2BFECBFEFBDE5E0EEBDEFEFEDBDE0E03C
:10021200ECBDE7BDE6BDEBBDEABDE9BDE8BDE2BDB3
:10022200E5BDE4BDE3BDE5E0E9BFE0E0E5BFE4BF75
:10023200EAB9E0E8E8B9E0E0E0BFE6B9EDB9E6BF67
:100242007894FFCFFFCFA0E6B1E0EE0FFF1FAE0F15
:10025200BF1F0E942D010895ED91FC911197089501
:00000001FF
