:020000000C945E
:100002002A000C9400000C9400000C9400000C9444
:1000120000000C9400000C9400000C9400000C945E
:1000220000000C9445000C9400000C9400000C9409
:1000320000000C9400000C9400000C9400000C943E
:1000420000000C9400000C9400000C9400000C942E
:100052000000F894EE27ECBBF1E0FBBFEBBFE5BF7D
:100062008DE0A2E0BB27ED938A95E9F780E094E06A
:10007200A0E6ED930197E9F7EFE5EDBFE4E0EEBF0F
:10008200C0E6D1E00C949B000A92EA93FA93EFB790
:10009200EA93ECE0E2BFE1E0E71509F045C0042C89
:1000A2000528F1F4082C092811F4E9E014C0E1E074
:1000B200F0E0E815F90511F4E5E00DC0E2E0F0E04A
:1000C200E815F90511F4E6E006C0E3E0F0E0E81512
:1000D200F90511F4EAE0EBBBF20131962F0124C0DD
:1000E200E5E0F0E04E165F062CF0EAE0F0E04E1696
:1000F2005F060CF006C0E0E0EBBBF20131962F0187
:1001020013C00024801490042CF0E3E0F0E0E81522
:10011200F9050CF404C0F40131964F0103C08824A0
:100122009924772444245524E991EFBFF991E99168
:1001320009901895E0E0E7BBE8BBE1BBE2BBE5E074
:10014200E3BFECE0E2BFE0E0ECBFEFBDEEBDEDBD32
:10015200ECBDE7BDE6BDEBBDEABDE9BDE8BDE2BD74
:10016200E5BDE4BDE3BDE1E0E9BFE0E0E5BFE4BF3A
:10017200EAB9E0E8E8B9E0E0E0BFE6B9EDB9E6BF28
:10018200789444245524882499247724E0E0E4BB1D
:10019200E3BBEFEFEABBE0E0EBBB9A9902C077204A
:1001A20009F004C044245524E1E07E2EF6CFFFCFAF
:00000001FF
