:100000000C9444000C9400000C9400000C9400002C
:100010000C9400000C9400000C9400000C94000060
:100020000C9400000C9400000C9400000C94000050
:100030000C9400000C9400000C9400000C94000040
:100040000C9400000C9400000C9400000C94000030
:100050000C9400001027E80364000A00010000105F
:100060000001100001004672657175656E63793A92
:1000700020256420487A000080C0010060017600DD
:100080000200790178000000F894EE27ECBBF1E063
:10009000FBBFEBBFE5BF8DE0A2E0BB27ED938A95E8
:1000A000E9F780E094E0A0E6ED930197E9F7EAE74D
:1000B000F0E085919591009761F0A591B59105903B
:1000C0001590BF01F00105900D920197E1F7FB013A
:1000D000F0CFEFE5EDBFE4E0EEBFC0E6D1E00C9479
:1000E0007100A8E1DCD0E0E0E2BBE0E0EFBDE0E0E1
:1000F000F0E0FDBDECBDE0E2E8BFE1E4EEBDE8B755
:10010000E5FFFDCF0E943E032F01E0E2E8BFE1E002
:10011000EEBDE8B7E5FFFDCF0E943E033F01E0E200
:10012000E8BFE1E4EEBDE8B7E5FFFDCF0E943E0386
:100130004F01E0E2E8BFE0E0EEBD48145904B0F53D
:10014000F301E419F5095F0166277727A0E8BDE808
:100150008BE590E00E94A8030E944703A0917501DF
:10016000B09176018091770190917801E6E0F0E01E
:1001700060E070E00E94CD030E944703E1E6F1E0F9
:10018000FA93EA93E6E6F0E0FA93EA93E0917501D8
:10019000F09176010E94A3030E94ED0384E00E9487
:1001A000F10228963DD0A1E6B1E002C0A0E6B1E0A0
:1001B00065D0A4E6B0E00E94890397CFFFCFAA9351
:1001C000EBB3EF70AE2FE881E07FEA2BEBBB8AE068
:1001D0008A95F1F7DA9A8AE08A95F1F7DA988AE057
:1001E0008A95F1F788C0AA93A881E9DFE881E295B2
:1001F000E883A881E4DF84E68A95F1F77CC0AA93BE
:10020000E881F0E0E758FE4FE081A981AE0FEBDF17
:10021000E981E0937D01E881E0937E0122960895D3
:10022000A2E00E945003ACE0DEDFA1E00E94500398
:10023000E0E0E0937E01E0937D010895AA93A88118
:10024000AA3031F0E0917F01A0917D01AE1760F0FE
:10025000E0E0EA93A0917E01AF5FA0937E01CFDF43
:10026000A881AA3009F447C0E0917D01EF5FE093D7
:100270007D01D89AA881B7DFD8983DC0BA93AA93D8
:100280001A93A981BA81ED91A983BA831E2FE03018
:1002900019F0A12FD3DFF5CF188123960895AA93E3
:1002A000EAB3E06FEABBD29AD09AD19ADA98D8989A
:1002B000D998E881E0937F01E058E0937B01E881E1
:1002C000E054E0937C01A4E1B0E00E9489030E9425
:1002D00056030E9456030E945603A0E270DF88EC8A
:1002E0008A95F1F7A8E27FDFA4E07DDFA5E87BDF58
:1002F000A6E079DF95DF21960895BA93AA931A9321
:100300000A93AA81BB8112960E94E503309759F1A6
:10031000AA81BB8114960E94E5038F01309761F09A
:100320000230E0E01E0798F0F80131978F01AA81B2
:10033000BB811496ED93FC93AA81BB811296ED913B
:10034000FD913196FE93EE933197AC81A083AA8103
:10035000BB810E94E503FF232AF0ED91FD913196C8
:10036000FE93EE9306C0AA81BB81EFEFFFEFED9302
:10037000FC931981088125960895BA93AA9326972C
:100380000E94F20310E0AC85BD85E0E0F0E0ED9363
:10039000FC93EA89FB893196EA8BFB8B3197E491D8
:1003A0002E2FE03009F415C1E12FE03039F4253269
:1003B00011F411E002C00E945D030AC1E130A9F40A
:1003C000253219F40E945D0302C112E040E000E012
:1003D0002D3211F401E0FCC02B3211F44BE2F8C0D5
:1003E000203211F440E2F4C002C0E23039F450E0AF
:1003F00013E0203311F40068EBC003C0E33009F0D0
:10040000E7C0203310F02A3308F007C0AAE05A9F53
:10041000502DE22FE0535E0FDBC0E22FE33649F4AC
:100420000E946403E889F989A481AA930E946A035F
:10043000CEC0E33741F40E9464030E9470030E941F
:1004400025031E2F0AC0E03761F40E9464030E9456
:1004500070030E9431031E2F086002600F7730E0A6
:1004600034C0E43611F0E93611F4046002C0E53717
:1004700031F4E4E5F0E0EE83FF8315E00CC0E835ED
:1004800011F4086003C0E83709F0A1C0EEE5F0E020
:10049000EE83FF8314E002FF14C00E9464030E94F5
:1004A0007A03AB85AA233AF4EA85FB850E94970379
:1004B000EA87FB874DE2403011F01F5F01C00B7FE0
:1004C00004C00E9464030E947A0300FD11C0151746
:1004D00078F407FF08C002FF04C00B7F242F1150DF
:1004E00001C020E301C020E20E945D035150EFCF24
:1004F000312F01FF17C03030A1F003FF06C0EE819D
:10050000FF812591EE83FF8305C0AE81BF812D91D0
:10051000AE83BF830E945D03503009F051503150CB
:10052000EACF4BC020E3EE81FF810E94E903E88718
:10053000F987EE81FF813296EE83FF83E885F985A6
:10054000AA85BB85AE17BF0750F02F5FA885B98578
:10055000EA85FB85EA1BFB0BEA87FB87EFCF2A3393
:1005600028F003FF02C0295F01C0295D04FD1AC005
:10057000213320F4A885B985119709F409C05317D0
:1005800010F000FF01C013C020E207FF0BC020E302
:10059000006102FF07C00B7F4A930E946A0350303C
:1005A00009F051500E945D03503009F05150315014
:1005B000A885B985129708F0B5CF00FF08C0503064
:1005C00031F05150E0E2EA930E946A03F8CF10E064
:1005D000E0CEAC85BD850E94E5030E94F9036496D8
:1005E0000895FF92F82E26970E94F4030E9482033A
:1005F000309719F4EFEFFFEF23C0DE0116960E944B
:1006000093038D010E948203EE83FF83E0E0E8877D
:10061000E987DE011A960E9493030E94E503FA938C
:10062000EA931A930A93EDE7F1E0FA93EA93DE0175
:100630001A96A3DE9F01AE81BF81E0E0EC93F90141
:100640000E94FB032A96FF900895BA93AA93A9915A
:10065000B991EE27FF276D91662311F03196FBCFFC
:100660000895BA93AA93AA27BB27E991F991059017
:10067000002011F01196FBCFFD010895E7B5FE2F84
:10068000E0E0DF01E6B5F0E0EA0FFB1F0895E0933C
:100690007501F09376016093770170937801089566
:1006A0000E94F300A3E0B0E00C948903A0E30E9451
:1006B000DF0088EC8A95F1F708952A93AD85BE8511
:1006C000EF85F88909950895E889F9893497E88BC9
:1006D000F98B0895AD85BE85EF85F8890995089554
:1006E000A889B98914960E94E503EE83FF83AE8141
:1006F000BF810895A889B98914960E94E503EA8705
:10070000FB870895DE011C960E9493030E94E50377
:100710000895109639F08CED95E00197F1F7A895C2
:100720001197C9F708950024AF0DB01D0895F195F4
:10073000E195F0400895F09560957095E195FF4F33
:100740006F4F7F4F08956F2F660F660B762F0895BA
:100750003F934F935F93002411244427552730E2A1
:10076000AA0FBB1F881F991F001C111C441F551F77
:100770000E1A1F0A460B570B28F40E0E1F1E461F9B
:10078000571F01C0A1603A9559F7FD01BC01D00186
:10079000CA015F914F913F91089504D0D9DF0EF4C3
:1007A000CADF0895E89477FF02C0C5DF689497FF19
:1007B0000BC00024A095B095809590951196801D52
:1007C000901D00F8039400FA0895ED91FC911197A3
:1007D00008950590F491E02D08957A936A93FA9321
:1007E000EA9308955A934A933A932A931A930A9351
:1007F00008955D814C813B812A811981088108958A
:00000001FF
