:0E0000000C9430000C9400000C9400000C9442
:10000E0000000C9400000C9400000C9400000C9462
:10001E0000000C9400000C945D000C9400000C94F5
:10002E0000000C9400000C9400000C9400000C9442
:10003E0000000C9400000C9400000C9400000C9432
:10004E0000000C940000E2FF1E000300600154004B
:10005E000000F894EE27ECBBF1E0FBBFEBBFE5BF71
:10006E008DE0A2E0BB27ED938A95E9F780E094E05E
:10007E00A0E6ED930197E9F7E8E5F0E0859195911B
:10008E00009761F0A591B59105901590BF01F00113
:10009E0005900D920197E1F7FB01F0CFEFE5EDBF73
:1000AE00E4E0EEBFC0E6D1E00C94B9000A92EA9308
:1000BE00FA93EFB7EA93ECE0E2BFE1E0E91509F05D
:1000CE004BC0641475040CF444C00A2C0B2811F4B4
:1000DE00E9E014C0E1E0F0E0EA15FB0511F4E5E01B
:1000EE000DC0E2E0F0E0EA15FB0511F4E6E006C013
:1000FE00E3E0F0E0EA15FB0511F4EAE0EBBBE3E028
:10010E00F0E0AE16BF0624F4F50131965F0102C091
:10011E00AA24BB24882071F4E0916001F091610162
:10012E00E415F50524F4F20131972F0102C0E1E048
:10013E008E2E0DC0E0916201F09163014E165F06A6
:10014E0024F4F20131962F0102C0882499246624EA
:10015E007724F30131963F01E991EFBFF991E991CF
:10016E0009901895E0E0E7BBE8BBE1BBE2BBE3E03A
:10017E00E3BFECE0E2BFE0E0ECBFEFBDEEBDEDBDF6
:10018E00ECBDE7BDE6BDEBBDEABDE9BDE8BDE2BD38
:10019E00E5BDE4BDE3BDE1E0E9BFE0E0E5BFE4BFFE
:1001AE00EAB9E0E8E8B9E0E0E0BFE6B9EDB9E6BFEC
:1001BE007894882416D0AA24BB24E1E09E2EE0E099
:1001CE00E4BBE3BBEFEFEABBE0E0EBBB9A9902C006
:1001DE00992009F004C005D08824E1E09E2EF6CFC8
:1001EE00FFCF4090620150906301662477240895FA
:00000001FF
