:0C0000000C942A000C9400000C940000EA
:10000C000C9400000C9400000C9400000C94000064
:10001C000C9400000C9400000C9445000C9400000F
:10002C000C9400000C9400000C9400000C94000044
:10003C000C9400000C9400000C9400000C94000034
:10004C000C9400000C940000F894EE27ECBBF1E04B
:10005C00FBBFEBBFE5BF8DE0A2E0BB27ED938A951C
:10006C00E9F780E094E0A0E6ED930197E9F7EFE57E
:10007C00EDBFE4E0EEBFC0E6D1E00C947100AA93B2
:10008C00BA93EA93FA93EFB7EA93EFE1E2BFA0E6F3
:10009C00B1E0ED91FD913196FE93EE93A09160014C
:1000AC00B0916101AD34E1E0BE0771F4A0E0A89914
:1000BC00A1E0E1E0EA2711F4A89801C0A89AE0E0D9
:1000CC00E0936001E0936101E991EFBFF991E9914F
:1000DC00B991A9911895E1E0E4BBE2E0E3BFEFE14F
:1000EC00E2BFE1E0E9BFE0E0EABBE9BBEFEFE7BB71
:1000FC00E0E0E8BB7894E9B3E130A9F416D01CD069
:10010C0022D028D027D02DD033D039D0C79AA4E60E
:10011C00B0E00E94CC00C79832D02AD022D01AD09E
:10012C0012D00AD002D0E7CFFFCFC09AA4E6B0E03D
:10013C000E94CC00C0980895C19AA4E6B0E00E9439
:10014C00CC00C1980895C29AA4E6B0E00E94CC00FD
:10015C00C2980895C39AA4E6B0E00E94CC00C3985C
:10016C000895C49AA4E6B0E00E94CC00C498089507
:10017C00C59AA4E6B0E00E94CC00C5980895C69A32
:10018C00A4E6B0E00E94CC00C6980895109639F011
:10019C0088EB9BE00197F1F7A8951197C9F70895A3
:00000001FF
